:020000040000FA
:060000000A128A110C280F
:10000800FE00030EF0000A08F1000A128A15BA2A47
:100018000A128A110F288313DA30FD000A30FE0015
:100028005E30FF00CA3084000A128A15AB220A1219
:100038008A11A0308400CA300A128A152A220A12AC
:100048008A115F30840070300A128A152A220A1237
:100058008A11FA01FB0183010A128A119B2E83126D
:10006800031329088039B3002908AE002E07B90008
:10007800A81F3F2840284128391439080319452862
:1000880046285528390A031D4A284B28532800308A
:10009800A9000030A8000030A7000030A600A8176B
:1000A8005D280030A9000030A8000030A70000300B
:1000B800A6002D088039FF007F08B3062D08AE0082
:1000C8002E07B400AC1F69286A286B28341434083A
:1000D80003196F2870287F28340A031D742875288F
:1000E8007D280030AD000030AC000030AB0000309F
:1000F800AA00AC1787280030AD000030AC000030F3
:10010800AB000030AA00340803198B288C289128EA
:100118003908031D902891289A280030A90000303A
:10012800A8000030A7000030A600772B2608F200B0
:100138002C080A128A15B7230A128A117308831227
:100148000313BF007208BE003E08AE00AF01B00145
:10015800B1013108B8003008B7002F08B6002E08E2
:10016800B5003F08AE00AF01B001B1013108BD00D4
:100178003008BC002F08BB002E08BA002708F20080
:100188002B080A128A15B7230A128A1173088312D8
:100198000313BF007208BE003E08AE00AF01B001F5
:1001A800B1012E08B5072F0803110318013E0319E2
:1001B800DE28B607300803110318013E0319E528A5
:1001C800B707310803110318013E0319EC28B807D3
:1001D8003F08AE00AF01B001B1012E08BA072F08E1
:1001E80003110318013E0319FA28BB07300803114D
:1001F8000318013E03190129BC073108031103182C
:10020800013E03190829BD072808F2002A080A1226
:100218008A15B7230A128A11730883120313BF00C1
:100228007208BE003E08AE00AF01B001B1012E0851
:10023800B5072F0803110318013E03192429B6072F
:10024800300803110318013E03192B29B707310899
:1002580003110318013E03193229B8073F08AE00FD
:10026800AF01B001B1012E08BA072F080311031816
:10027800013E03194029BB07300803110318013E4A
:1002880003194729BC07310803110318013E031954
:100298004E29BD070830AE000310B50DB60DB70DD9
:1002A800B80DAE0B50292708F2002A080A128A1541
:1002B800B7230A128A11730883120313BF00720846
:1002C800BE003E08AE003F08AF00B001B1012E08E5
:1002D800B5072F0803110318013E03197429B6073F
:1002E800300803110318013E03197B29B7073108A9
:1002F80003110318013E03198229B8072608F200E2
:100308002B080A128A15B7230A128A117308831256
:100318000313BF007208BE003E08AE003F08AF00DE
:10032800B001B1012E08B5072F0803110318013ECB
:1003380003199F29B607300803110318013E031952
:10034800A629B707310803110318013E0319AD297F
:10035800B8070830AE000310B50DB60DB70DB80DCF
:10036800AE0BAF292608F2002A080A128A15B7230D
:100378000A128A11730883120313BF007208BE00A1
:100388003E08AE003F08AF00B001B1012E08B50726
:100398002F0803110318013E0319D329B6073008A3
:1003A80003110318013E0319DA29B70731080311AD
:1003B8000318013E0319E129B8072708F2002C08A1
:1003C8000A128A15B7230A128A11730883120313B3
:1003D800BF007208BE003E08AE003F08AF00B00183
:1003E800B1012E08BA072F0803110318013E03199B
:1003F800FE29BB07300803110318013E0319052A1B
:10040800BC07310803110318013E03190C2ABD0764
:100418002808F2002B080A128A15B7230A128A1133
:10042800730883120313BF007208BE003E08AE00B3
:100438003F08AF00B001B1012E08BA072F08031119
:100448000318013E0319292ABB07300803110318B2
:10045800013E0319302ABC07310803110318013E75
:100468000319372ABD072808F2002C080A128A1532
:10047800B7230A128A11730883120313BF00720884
:10048800BE003E08AE003F08AF00B001B101083021
:100498000310AE0DAF0DB00DB10DFF3E031D4C2A7C
:1004A8002E08BA072F0803110318013E03195D2A05
:1004B800BB07300803110318013E0319642ABC075F
:1004C800310803110318013E03196B2ABD073508CB
:1004D800AE003608AF003708B0003808B100183051
:1004E8000310B10CB00CAF0CAE0CFF3E031D742A08
:1004F8002E08BA072F0803110318013E0319852A8D
:10050800BB07300803110318013E03198C2ABC07E6
:10051800310803110318013E0319932ABD07083057
:10052800AE000310B50DB60DB70DB80DAE0B952A7C
:1005380039083407AE00AF01AF0D2E08823EBE0069
:100548002F080318013EFF3EBF00C72A0130AE0046
:100558000310BA0DBB0DBC0DBD0DAE0BAC2AB81FF8
:10056800B62AB72AB82A3A140130AE000310B50DDE
:10057800B60DB70DB80DAE0BBA2AFF30BE0703187B
:10058800BF0AFF30BF07BC1FCA2ACB2AAA2AB40158
:10059800B81FCF2AD02AEC2AFF303505AE00FF302D
:1005A8003605AF00FF303705B0007F303805B100A1
:1005B800310830042F042E040319E32AE42AE72A19
:1005C800B401B40AEC2A3A1CEA2AEB2AEC2AE42AF7
:1005D80034080319F02AF12A222B0130BA07003017
:1005E80003180130BB07003003180130BC07003086
:1005F80003180130BD073D1C022B032B222B3A08A0
:10060800AE003B08AF003C08B0003D08B100013027
:10061800B200310DB10CB00CAF0CAE0CB20B0D2BFF
:100628003108BD003008BC002F08BB002E08BA00F6
:100638000130BE070318BF0A0030BF073F08803AE1
:10064800FF0080307F02031D2B2BFF303E02031C6E
:100658002E2B2F2B3A2B7F3083120313BD008030B3
:10066800BC000030BB000030BA006B2B83120313B0
:100678003F08803AFF0080307F02031D452B013080
:100688003E020318482B492B552B003083120313C5
:10069800BD000030BC000030BB000030BA00B30120
:1006A8006B2B831203133E08B900FF30BA05FF30E5
:1006B800BB057F30BC050030BD05391C642B652B9C
:1006C800662BBC173908AE0003102E0CBD0033088A
:1006D800FF007F08BD043D08A9003C08A8003B08AE
:1006E800A7003A08A600080083120313AD002808E3
:1006F80084008313000884000A128A110E260A1245
:100708008A11253A031D892B8A2B512C0130FF00B1
:10071800280884007F08800783160313C001C101DD
:10072800031000300318013083120313ED00FF306B
:10073800DF00FF30E000280884000008AE002E0823
:1007480084000A128A110E260A128A11643A0319C1
:10075800AE2BAF2BBB2B2E0884000A128A110E2653
:100768000A128A11693A031DBA2BBB2B472C290898
:1007780084000008FF00023080077F08840000081A
:10078800AF00840A0008B000280884002E08013E43
:1007980080002030B300B01BD22BD42B0130D52BD6
:1007A8000030AC000130B3023308A03E84000A30A8
:1007B800F2000030F3003008F5002F08F4000A12A8
:1007C8008A150D260A128A117308F9007208F800B2
:1007D8000A128A156E220A128A117808303E83138B
:1007E80080000A3083120313A0000030A1003008F3
:1007F800A3002F08A2000A128A1525270A128A11B7
:10080800831203132108B0002008AF002F0830041A
:1008180003190F2C102C152C3308031D142C152C20
:10082800D62B33080319192C1A2C402C2C08031921
:100838001E2C1F2C402C0130B3023308A03E84002C
:100848002D3083138000402C3308A03E840083138E
:100858000008AA00AB012A08F2002B08F3002D08B3
:10086800F4000A128A15B7250A128A110130FF000E
:100878007F0883120313B30720303306031D452C6A
:10088800462C282C682C0130FF00831203132808FB
:1008980084007F0883138007682C280884000008D8
:1008A80084000A128A110E260A128A11AA00AB01C4
:1008B8002A08F2002B08F3002D08F4000A128A1502
:1008C800B7250A128A11472C080020308400CA3044
:1008D800F2000408F3001030F40072088400831357
:1008E8000008F500F20A7308840075088000F30A0E
:1008F800F40B712C83120313B001B101B2018312FE
:10090800031331083204031D8A2C8B2CB02CFE30C3
:1009180086004230F200F20B8F2C0000952C200844
:10092800B00083120313061E9A2C9B2C932C9E2C2A
:100938002108B000861EA12CA22C9C2CA52C2208D4
:10094800B000061FA82CA92CA32CAC2C2308B0009F
:10095800861FAF2CB02CAA2C31033204031DB52CF2
:10096800B62CDB2CFD3086004230F200F20BBA2C9C
:100978000000C02C2408B00083120313061EC52CE7
:10098800C62CBE2CC92C2508B000861ECC2CCD2C1C
:10099800C72CD02C2608B000061FD32CD42CCE2C64
:1009A800D72C2708B000861FDA2CDB2CD52C023078
:1009B80031063204031DE12CE22C072DFB308600A2
:1009C8004230F200F20BE62C0000EC2C2808B000B4
:1009D80083120313061EF12CF22CEA2CF52C29089D
:1009E800B000861EF82CF92CF32CFC2C2A08B00039
:1009F800061FFF2C002DFA2C032D2B08B000861F94
:100A0800062D072D012D033031063204031D0D2D4F
:100A18000E2D332DF73086004230F200F20B122DE6
:100A28000000182D2C08B00083120313061E1D2D7C
:100A38001E2D162D212D2D08B000861E242D252DA6
:100A48001F2D282D2E08B000061F2B2D2C2D262DEE
:100A58002F2D2F08B000861F322D332D2D2D01305C
:100A6800B1070318B20A0030B2073208803AFF0013
:100A780080307F02031D422D04303102031C452DB6
:100A8800462D832C831203133008080083120313A6
:100A9800A00020080319512D522D662DF51F552D44
:100AA800562D662D7209A2007309A3007409A400CB
:100AB8007509A500A20A0319A30A0319A40A0319B0
:100AC800A50A6E2D7508A5007408A4007308A30074
:100AD8007208A2007508740473047204031D752D4E
:100AE800762D7F2D0030F5000030F4000030F30043
:100AF8000030F200032E9630A1008F2D0130FF0048
:100B08007F08A10701300310A50CA40CA30CA20CAC
:100B1800FF3E031D872DFE302505031D942D952DC1
:100B2800822DB12D0130FF007F08A1070130A207F7
:100B3800003003180130A307003003180130A40760
:100B4800003003180130A50701300310A50CA40CD0
:100B5800A30CA20CFF3E031DA92DFF302505031D84
:100B6800B62DB72D962DC32D0130A1020130F60008
:100B78000310A20DA30DA40DA50DF60BBC2DA41BEF
:100B8800C62DC72DCD2D023021020318CC2DCD2D19
:100B9800B82D2118D02DD12DD92DFF30A205FF3029
:100BA800A3057F30A405FF30A5050310A10C21087B
:100BB800F600F701F801F90118300310F60DF70DEA
:100BC800F80DF90DFF3E031DE12D7608A204770804
:100BD800A3047808A4047908A50420080319F52DAE
:100BE800F62DFB2DF51FF92DFA2DFB2DA517250840
:100BF800F5002408F4002308F3002208F200080096
:100C0800FF1B0E2E83137F1883170008840A03190D
:100C1800FF0A080006308A000408840A82070034A4
:100C2800313432343334343435345334493453342E
:100C3800543445344D344134203442344C344F34E8
:100C4800513455344534413444344F3400344334FA
:100C58004C34413456344534203449344E344334CA
:100C68004F345234523445344334543441340034CC
:100C780049346E3467347234653473346134723491
:100C8800203443346C346134763465343A34003477
:100C980043346C34613476346534203443346F34EF
:100CA80072347234653463347434613400345434C7
:100CB8003A34203425346434433420344C343A34C0
:100CC8002034253464344C347834003448343A348D
:100CD80020342534643420344F343A3420342534D5
:100CE800643400344234493445344E34563445343F
:100CF8004E34493444344F34003453346534673403
:100D08007534723469346434613464340034413481
:100D18004C34413452344D3441344134413400343C
:100D280041344C34453452345434413400347130F5
:100D3800831603138F008316031789018316031381
:100D48008801870105148514051585158312031379
:100D5800880183160317881008110A128A1544257A
:100D68000A128A110A128A153E220A128A110A12D6
:100D78008A1532220A128A110A128A15EA220A12DE
:100D88008A110A128A1581220A128A110A128A15F0
:100D980094220A128A110A128A119F270A128A11AA
:100DA8000A128A15D7240A128A11032F0A128A15E1
:100DB8000D250A128A11032F0A128A15D0220A1247
:100DC8008A11032F0A128A15E0230A128A11032FA7
:100DD8000A128A158E270A128A11032F0A128A15F7
:100DE800C3260A128A11032F0A128A150B240A1223
:100DF8008A11032F0A128A153A240A128A118312B9
:100E080003136F08DD00DE015E08003A03190D2F99
:100E1800032F5D08003A0319DA2E013A0319E02E70
:100E2800033A0319E62E013A0319EC2E073A03197F
:100E3800F22E013A0319F82E033A0319FE2E032F56
:100E48000A128A110C280310740D750D83120313EE
:100E5800A1002108031D312F322F3B2F0030F50050
:100E68000030F4000030F3000030F2009E2F7208CA
:100E7800F6007308F7007408F8007508F9001F30C9
:100E88000310F90CF80CF70CF60CFF3E031D442F69
:100E98007608A000F417FF30F205FF30F305FF30A5
:100EA800F4050030F5059630A102A11F5C2F5D2FD7
:100EB800772F2108803A973E0318632F642F652FF8
:100EC800322F01300310F50CF40CF30CF20CFF3E3A
:100ED800031D662F0130FF007F08A107031D752F32
:100EE800762F652F8E2F20302102031C7C2F7D2F1B
:100EF800892F322F0130F6000310F20DF30DF40D97
:100F0800F50DF60B802F0130A1022108031D8D2F4E
:100F18008E2F7E2F20080319922F932F9E2FF209D0
:100F2800F309F409F509F20A0319F30A0319F40A93
:100F38000319F50A08000030F200F3000A128A15B6
:100F48007D250A128A11730883120313C9007208D7
:100F5800C800FF30C2000330C30048084202CA007C
:100F68004908031C490A4302CB003D30A90026303A
:100F7800A8003730A7003730A6004A08F2004B080F
:100F8800F3000030F31BFF30F400F50001300A12C3
:100F98008A114A250A128A11750883120313AD00B3
:100FA8007408AC007308AB007208AA000A128A1110
:100FB80033200A128A11831203132908C70028084C
:100FC800C6002708C5002608C4004708F5004608DB
:100FD800F4004508F3004408F2000A128A11272792
:100FE8000A128A11730883120313C1007208C00021
:040FF80008000800E5
:1014540064008001840A04060319003404062B2A5C
:10146400F030FF007F08831603138605F030FF0079
:101474007F08860481130800831603139F171F1225
:101484009F12831203131F083F3940389F009E01A7
:10149400831603139E01080001300A128A156B2477
:1014A4000A128A150830F600C930F500F50B582ADF
:1014B400F60B582A5D2A080031343234333441346F
:1014C40034343534363442343734383439344334AC
:1014D4002A34303423344434F91B712A722A732A8F
:1014E400802A780983120313A0007909A100A00AB5
:1014F4000319A10A2008F8002108F9000800831242
:101504000313851D862A872A912A1330F400F40BCD
:10151400892A8C2A0130F2000030F300932AF20168
:10152400F301080083120313081D992A9A2AA42A96
:101534001330F400F40B9C2A9F2A0130F20000308F
:10154400F300A62AF201F30108007E088A007F084E
:1015540082000A128A15A7220A128A158000840AB8
:1015640004087D0603190034FF0A0319FE0AAB2A96
:101574000B1DBD2ABE2AC92AF93083120313810028
:101584000130FA070318FB0A0030FB070B1171083E
:101594008A00700E8300FE0E7E0E09000230831254
:1015A4000313EF00D030E9000730EA006A087B0239
:1015B400031DDE2A69087A02031CE12AE22AD82ADA
:1015C400FA01FB010A128A154E220A128A15080032
:1015D4007130831603138F00831603178901831652
:1015E40003138801870105148514831203138801EA
:1015F4008316031788100811831603138514051521
:101604008515080083120313BF003930BE003F085C
:10161400C000C201C301C901CA013808B4003E3088
:10162400B50040300A128A1523230A128A15831240
:10163400031342083F07BD003D0884008313800163
:10164400080083120313B6003408B700332B373075
:10165400A8003508A90036080A128A1178230A124C
:101664008A1583120313370884000A128A110E267E
:101674000A128A15003A031D402B412B292BB40171
:10168400B5010800F601F701721C492B4A2B502BB7
:101694007408F6070318F70A7508F70701300310F2
:1016A400F40DF50DFF3E031D512B01300310F30C17
:1016B400F20CFF3E031D582B72087304031D632BA9
:1016C400642B462B7708F3007608F20008007E2B83
:1016D4007608FF00750884000A128A1104260A128B
:1016E4008A150A128A15A1240A128A150130F507EF
:1016F4000318F60A0030F607760883120313FF0076
:10170400750884000A128A1104260A128A15003AFE
:10171400031D8D2B8E2B6A2B080083120313A0004C
:10172400023020020318972B982BA32B77080F392C
:101734008038A10021080A128A156B240A128A151E
:10174400AD2B77080F39C038A10021080A128A1579
:101754006B240A128A157808F5007908F6000A1233
:101764008A1569230A128A15080083120313A40038
:10177400A001A1017208F400F5017408A200750823
:10178400A300241CC62BC72BCD2B2208A0070318AB
:10179400A10A2308A10701300310A20DA30DFF3EE7
:1017A400031DCE2B0310A40C2408031DDA2BDB2B02
:1017B400C32B2108F3002008F20008000A128A153E
:1017C4004E220A128A150630F5008030F6000A12FD
:1017D4008A1569230A128A158312031388170816B7
:1017E4001030E9002730EA006A087B02031DFC2B55
:1017F40069087A02031CFF2B002CF62BFA01FB016B
:10180400EF01EF0A0330EB000030EC0088130812FC
:1018140008008312031308170A128A154E220A12AB
:101824008A15F7017830F8008030F90000300A1288
:101834008A158F230A128A15C0300A128A156B245E
:101844000A128A15883083120313E9001330EA0060
:101854006A087B02031D302C69087A02031C332CAE
:10186400342C392C0330EF00FA01FB010813080073
:1018740083120313881708160A128A154E220A12B5
:101884008A15F7018130F8008030F90000300A121F
:101894008A158F230A128A15C0300A128A156B24FE
:1018A4000A128A15883083120313E9001330EA0000
:1018B4006A087B02031D602C69087A02031C632CEE
:1018C400642C6A2C0330EF00FA01FB018813081220
:1018D4000800F400F0307405F200831203130708C3
:1018E4000F39720487000710871400008312031352
:1018F40087100330F3009730F200F20B7F2CF30BC8
:101904007F2C842C7408F20004300310F20DFF3E87
:10191400031D872C8312031307080F3972048700F1
:10192400871400008312031387100830F300C930B2
:10193400F200F20B9B2CF30B9B2CA02C0800F40060
:10194400F0307405F2008312031307080F39720490
:1019540087000714871400008312031387100330D1
:10196400F3009730F200F20BB52CF30BB52CBA2C24
:101974007408F20004300310F20DFF3E031DBD2C69
:101984008312031307080F397204870087140000B9
:101994008312031387100830F300C930F200F20BEE
:1019A400D12CF30BD12CD62C08000130F2000030DE
:1019B400F3000A128A157D250A128A157308831208
:1019C4000313AB007208AA00FF30A0000330A1008B
:1019D4002B08F3002A08F2006430F4000030F5000C
:1019E4000A128A1544230A128A15730883120313F0
:1019F400A3007208A2000A128A1525270A128A1562
:101A0400831203132108AD002008AC002D08A9009F
:101A14002C08A80008000A128A1544250A128A15FF
:101A2400F7016330F8008030F90000300A128A159B
:101A34008F230A128A15153083120313A4004B3026
:101A4400A300BD30A200A20B252DA30B252DA40BB2
:101A5400252D2C2D0A128A154E220A128A156E3053
:101A6400F5008030F6000A128A1569230A128A15D5
:101A740083120313881288130813EF01EF0AFA0183
:101A8400FB01080083160313870183120313071055
:101A94008710FF308700831603130710871007127F
:101AA40087120713871387012730F600F530F500F6
:101AB400F50B5A2DF60B5A2D02300A128A156B2497
:101AC4000A128A1528300A128A156B240A128A15FA
:101AD40001300A128A156B240A128A150C300A1274
:101AE4008A156B240A128A1506300A128A156B2489
:101AF4000A128A15080072080F39F400F40DF40D67
:101B0400831203131F087406C33974069F001F143D
:101B14001330F400F40B8C2D8F2D831203139F14B8
:101B24009F18952D962D922D1E08F400F50174082A
:101B3400F8007508F9007908F5007808F4007408CD
:101B4400F500F401831603131E087407F600003031
:101B5400031801307507F7007608F8007708F900D4
:101B64007908F3007808F200080074080319BB2D03
:101B7400BC2DC12D7408031DC02DC12DC82D7208A4
:101B84000A128A11FD270A128A150C2E7408093EBE
:101B9400840083130008F500840A0008F600750821
:101BA40076040319D62DD72DF52D7408093E84002B
:101BB4000008F500840A0008F6007408023E840058
:101BC4000008F700840A0008F8007808803AF90051
:101BD4007608803A7902031DF12D750877020318FF
:101BE400F42DF52D0C2E7408023E84008313000896
:101BF400F5007408840000087507F6007608840070
:101C0400720880007408023E840001308007840A50
:101C14000318800A0800F701F51F112E122E192E41
:101C2400F409F509F40A0319F50AF701F70AF31F91
:101C34001C2E1D2E222EF209F309F20A0319F30AAF
:101C4400720873040319272E282E572EF601F60A5C
:101C5400362E01300310F20DF30DFF3E031D2C2E22
:101C64000130FF007F08F607F31F392E3A2E2B2E82
:101C740073087502031D402E72087402031C432E60
:101C8400442E4A2E7208F4027308031CF503F5026D
:101C940001300310F30CF20CFF3E031D4B2E0130F8
:101CA400F602031D562E572E3A2E770803195B2E83
:101CB4005C2E612EF409F509F40A0319F50A750876
:101CC400F3007408F2000800F7000130F30200305A
:101CD400031CF403F402730A031D742E740A031D17
:101CE400742E752E862EF201F301C22E0130FF00F0
:101CF4007F08F7070130FF007F08F2070130F30285
:101D04000030031CF403F4027708840083130008F2
:101D140003198D2E8E2EB02E720884000A128A1199
:101D24000E260A128A15003A0319992E9A2EB02EFD
:101D34007308740403199F2EA02EB02E7208840019
:101D44000A128A110E260A128A15F50077088400F1
:101D5400000875060319AF2EB02E782E7208840081
:101D64000A128A110E260A128A15F50077088400D1
:101D74000008F60075087602F200F301031CF30371
:101D840008000A128A1581220A128A15730883121E
:101D94000313E4007208E3000A128A1594220A125B
:101DA4008A15730883120313E2007208E1000A1211
:101DB4008A154E220A128A15573083120313B8006B
:101DC4006408BA006308B9006208BC006108BB007B
:101DD4004B300A128A1504230A128A15F7014B3074
:101DE400F8000030F90000300A128A158F230A1215
:101DF4008A15883083120313E9001330EA0064085B
:101E0400803AFF0080307F02031D0A2F01306302F5
:101E1400031C0D2F0E2F152F063083120313EF0012
:101E2400FA01FB01242F831203136A087B02031DAA
:101E34001D2F69087A02031C202F212F242F033021
:101E4400EF00122F080083120313A501A11F2B2FEB
:101E54002C2F332FA009A109A00A0319A10AA50157
:101E6400A50AA31F362F372F402FA209A309A20AC0
:101E74000319A30A0130FF007F08A506A601A701E4
:101E8400200821040319472F482F7F2FA401A40AF7
:101E9400562F01300310A00DA10DFF3E031D4C2F42
:101EA4000130FF007F08A407A11F592F5A2F4B2F81
:101EB40001300310A60DA70DFF3E031D5B2F210863
:101EC4002302031D672F20082202031C6A2F6B2F95
:101ED400722F2008A2022108031CA303A3022614C4
:101EE40001300310A10CA00CFF3E031D732F013021
:101EF400A402031D7E2F7F2F5A2F25080319832F39
:101F0400842F892FA609A709A60A0319A70A270857
:101F1400A1002608A00008000A128A119F270A12AD
:101F24008A15831203134108E8004008E7000A12E7
:101F34008A15D7240A128A15831203132908E60086
:101F44002808E5000A128A154E220A128A1548301A
:101F540083120313B8006808BA006708B90066085A
:101F6400BC006508BB004C300A128A1504230A120F
:101F74008A15F7014C30F8000030F90000300A12DD
:101F84008A158F230A128A15831203138816883040
:101F9400E9001330EA006808803AFF0080307F02CD
:101FA400031DD62F1F3067020318D92FDA2FE92F0C
:101FB400831203136608803AFF0083307F02031DF7
:101FC400E52F21306502031CE82FE92FF02F05309F
:101FD40083120313EF00FA01FB01FF2F8312031393
:101FE4006A087B02031DF82F69087A02031CFB2F81
:0C1FF400FC2FFF2F0430EF00ED2F080041
:04400E00D720FF3F79
:00000001FF
